{
  "contractName": "RaidenMicroTransferChannels",
  "abi": [
    {
      "constant": false,
      "inputs": [
        {
          "name": "_receiver_address",
          "type": "address"
        },
        {
          "name": "_open_block_number",
          "type": "uint32"
        },
        {
          "name": "_added_deposit",
          "type": "uint192"
        }
      ],
      "name": "topUp",
      "outputs": [],
      "payable": false,
      "stateMutability": "nonpayable",
      "type": "function"
    },
    {
      "constant": true,
      "inputs": [],
      "name": "challenge_period",
      "outputs": [
        {
          "name": "",
          "type": "uint32"
        }
      ],
      "payable": false,
      "stateMutability": "view",
      "type": "function"
    },
    {
      "constant": true,
      "inputs": [
        {
          "name": "_sender_address",
          "type": "address"
        },
        {
          "name": "_receiver_address",
          "type": "address"
        },
        {
          "name": "_open_block_number",
          "type": "uint32"
        }
      ],
      "name": "getChannelInfo",
      "outputs": [
        {
          "name": "",
          "type": "bytes32"
        },
        {
          "name": "",
          "type": "uint192"
        },
        {
          "name": "",
          "type": "uint32"
        },
        {
          "name": "",
          "type": "uint192"
        },
        {
          "name": "",
          "type": "uint192"
        }
      ],
      "payable": false,
      "stateMutability": "view",
      "type": "function"
    },
    {
      "constant": true,
      "inputs": [
        {
          "name": "_receiver_address",
          "type": "address"
        },
        {
          "name": "_open_block_number",
          "type": "uint32"
        },
        {
          "name": "_balance",
          "type": "uint192"
        },
        {
          "name": "_balance_msg_sig",
          "type": "bytes"
        }
      ],
      "name": "extractBalanceProofSignature",
      "outputs": [
        {
          "name": "",
          "type": "address"
        }
      ],
      "payable": false,
      "stateMutability": "view",
      "type": "function"
    },
    {
      "constant": false,
      "inputs": [
        {
          "name": "_receiver_address",
          "type": "address"
        },
        {
          "name": "_open_block_number",
          "type": "uint32"
        },
        {
          "name": "_balance",
          "type": "uint192"
        },
        {
          "name": "_balance_msg_sig",
          "type": "bytes"
        },
        {
          "name": "_closing_sig",
          "type": "bytes"
        }
      ],
      "name": "cooperativeClose",
      "outputs": [],
      "payable": false,
      "stateMutability": "nonpayable",
      "type": "function"
    },
    {
      "constant": true,
      "inputs": [
        {
          "name": "_sender_address",
          "type": "address"
        },
        {
          "name": "_open_block_number",
          "type": "uint32"
        },
        {
          "name": "_balance",
          "type": "uint192"
        },
        {
          "name": "_closing_sig",
          "type": "bytes"
        }
      ],
      "name": "extractClosingSignature",
      "outputs": [
        {
          "name": "",
          "type": "address"
        }
      ],
      "payable": false,
      "stateMutability": "view",
      "type": "function"
    },
    {
      "constant": false,
      "inputs": [
        {
          "name": "_trusted_contracts",
          "type": "address[]"
        }
      ],
      "name": "removeTrustedContracts",
      "outputs": [],
      "payable": false,
      "stateMutability": "nonpayable",
      "type": "function"
    },
    {
      "constant": true,
      "inputs": [
        {
          "name": "",
          "type": "bytes32"
        }
      ],
      "name": "withdrawn_balances",
      "outputs": [
        {
          "name": "",
          "type": "uint192"
        }
      ],
      "payable": false,
      "stateMutability": "view",
      "type": "function"
    },
    {
      "constant": false,
      "inputs": [
        {
          "name": "_receiver_address",
          "type": "address"
        },
        {
          "name": "_open_block_number",
          "type": "uint32"
        },
        {
          "name": "_balance",
          "type": "uint192"
        }
      ],
      "name": "uncooperativeClose",
      "outputs": [],
      "payable": false,
      "stateMutability": "nonpayable",
      "type": "function"
    },
    {
      "constant": true,
      "inputs": [],
      "name": "version",
      "outputs": [
        {
          "name": "",
          "type": "string"
        }
      ],
      "payable": false,
      "stateMutability": "view",
      "type": "function"
    },
    {
      "constant": false,
      "inputs": [
        {
          "name": "_receiver_address",
          "type": "address"
        },
        {
          "name": "_open_block_number",
          "type": "uint32"
        }
      ],
      "name": "settle",
      "outputs": [],
      "payable": false,
      "stateMutability": "nonpayable",
      "type": "function"
    },
    {
      "constant": true,
      "inputs": [],
      "name": "channel_deposit_bugbounty_limit",
      "outputs": [
        {
          "name": "",
          "type": "uint256"
        }
      ],
      "payable": false,
      "stateMutability": "view",
      "type": "function"
    },
    {
      "constant": true,
      "inputs": [
        {
          "name": "",
          "type": "bytes32"
        }
      ],
      "name": "closing_requests",
      "outputs": [
        {
          "name": "closing_balance",
          "type": "uint192"
        },
        {
          "name": "settle_block_number",
          "type": "uint32"
        }
      ],
      "payable": false,
      "stateMutability": "view",
      "type": "function"
    },
    {
      "constant": false,
      "inputs": [
        {
          "name": "_sender_address",
          "type": "address"
        },
        {
          "name": "_receiver_address",
          "type": "address"
        },
        {
          "name": "_open_block_number",
          "type": "uint32"
        },
        {
          "name": "_added_deposit",
          "type": "uint192"
        }
      ],
      "name": "topUpDelegate",
      "outputs": [],
      "payable": false,
      "stateMutability": "nonpayable",
      "type": "function"
    },
    {
      "constant": true,
      "inputs": [
        {
          "name": "",
          "type": "bytes32"
        }
      ],
      "name": "channels",
      "outputs": [
        {
          "name": "deposit",
          "type": "uint192"
        },
        {
          "name": "open_block_number",
          "type": "uint32"
        }
      ],
      "payable": false,
      "stateMutability": "view",
      "type": "function"
    },
    {
      "constant": true,
      "inputs": [
        {
          "name": "_sender_address",
          "type": "address"
        },
        {
          "name": "_receiver_address",
          "type": "address"
        },
        {
          "name": "_open_block_number",
          "type": "uint32"
        }
      ],
      "name": "getKey",
      "outputs": [
        {
          "name": "data",
          "type": "bytes32"
        }
      ],
      "payable": false,
      "stateMutability": "pure",
      "type": "function"
    },
    {
      "constant": true,
      "inputs": [],
      "name": "owner_address",
      "outputs": [
        {
          "name": "",
          "type": "address"
        }
      ],
      "payable": false,
      "stateMutability": "view",
      "type": "function"
    },
    {
      "constant": false,
      "inputs": [
        {
          "name": "_trusted_contracts",
          "type": "address[]"
        }
      ],
      "name": "addTrustedContracts",
      "outputs": [],
      "payable": false,
      "stateMutability": "nonpayable",
      "type": "function"
    },
    {
      "constant": true,
      "inputs": [
        {
          "name": "",
          "type": "address"
        }
      ],
      "name": "trusted_contracts",
      "outputs": [
        {
          "name": "",
          "type": "bool"
        }
      ],
      "payable": false,
      "stateMutability": "view",
      "type": "function"
    },
    {
      "constant": false,
      "inputs": [
        {
          "name": "_open_block_number",
          "type": "uint32"
        },
        {
          "name": "_balance",
          "type": "uint192"
        },
        {
          "name": "_balance_msg_sig",
          "type": "bytes"
        }
      ],
      "name": "withdraw",
      "outputs": [],
      "payable": false,
      "stateMutability": "nonpayable",
      "type": "function"
    },
    {
      "constant": false,
      "inputs": [
        {
          "name": "_receiver_address",
          "type": "address"
        },
        {
          "name": "_deposit",
          "type": "uint192"
        }
      ],
      "name": "createChannel",
      "outputs": [],
      "payable": false,
      "stateMutability": "nonpayable",
      "type": "function"
    },
    {
      "constant": false,
      "inputs": [
        {
          "name": "_sender_address",
          "type": "address"
        },
        {
          "name": "_deposit",
          "type": "uint256"
        },
        {
          "name": "_data",
          "type": "bytes"
        }
      ],
      "name": "tokenFallback",
      "outputs": [],
      "payable": false,
      "stateMutability": "nonpayable",
      "type": "function"
    },
    {
      "constant": true,
      "inputs": [],
      "name": "token",
      "outputs": [
        {
          "name": "",
          "type": "address"
        }
      ],
      "payable": false,
      "stateMutability": "view",
      "type": "function"
    },
    {
      "constant": false,
      "inputs": [
        {
          "name": "_sender_address",
          "type": "address"
        },
        {
          "name": "_receiver_address",
          "type": "address"
        },
        {
          "name": "_deposit",
          "type": "uint192"
        }
      ],
      "name": "createChannelDelegate",
      "outputs": [],
      "payable": false,
      "stateMutability": "nonpayable",
      "type": "function"
    },
    {
      "inputs": [
        {
          "name": "_token_address",
          "type": "address"
        },
        {
          "name": "_challenge_period",
          "type": "uint32"
        },
        {
          "name": "_trusted_contracts",
          "type": "address[]"
        }
      ],
      "payable": false,
      "stateMutability": "nonpayable",
      "type": "constructor"
    },
    {
      "anonymous": false,
      "inputs": [
        {
          "indexed": true,
          "name": "_sender_address",
          "type": "address"
        },
        {
          "indexed": true,
          "name": "_receiver_address",
          "type": "address"
        },
        {
          "indexed": false,
          "name": "_deposit",
          "type": "uint192"
        }
      ],
      "name": "ChannelCreated",
      "type": "event"
    },
    {
      "anonymous": false,
      "inputs": [
        {
          "indexed": true,
          "name": "_sender_address",
          "type": "address"
        },
        {
          "indexed": true,
          "name": "_receiver_address",
          "type": "address"
        },
        {
          "indexed": true,
          "name": "_open_block_number",
          "type": "uint32"
        },
        {
          "indexed": false,
          "name": "_added_deposit",
          "type": "uint192"
        }
      ],
      "name": "ChannelToppedUp",
      "type": "event"
    },
    {
      "anonymous": false,
      "inputs": [
        {
          "indexed": true,
          "name": "_sender_address",
          "type": "address"
        },
        {
          "indexed": true,
          "name": "_receiver_address",
          "type": "address"
        },
        {
          "indexed": true,
          "name": "_open_block_number",
          "type": "uint32"
        },
        {
          "indexed": false,
          "name": "_balance",
          "type": "uint192"
        }
      ],
      "name": "ChannelCloseRequested",
      "type": "event"
    },
    {
      "anonymous": false,
      "inputs": [
        {
          "indexed": true,
          "name": "_sender_address",
          "type": "address"
        },
        {
          "indexed": true,
          "name": "_receiver_address",
          "type": "address"
        },
        {
          "indexed": true,
          "name": "_open_block_number",
          "type": "uint32"
        },
        {
          "indexed": false,
          "name": "_balance",
          "type": "uint192"
        },
        {
          "indexed": false,
          "name": "_receiver_tokens",
          "type": "uint192"
        }
      ],
      "name": "ChannelSettled",
      "type": "event"
    },
    {
      "anonymous": false,
      "inputs": [
        {
          "indexed": true,
          "name": "_sender_address",
          "type": "address"
        },
        {
          "indexed": true,
          "name": "_receiver_address",
          "type": "address"
        },
        {
          "indexed": true,
          "name": "_open_block_number",
          "type": "uint32"
        },
        {
          "indexed": false,
          "name": "_withdrawn_balance",
          "type": "uint192"
        }
      ],
      "name": "ChannelWithdraw",
      "type": "event"
    },
    {
      "anonymous": false,
      "inputs": [
        {
          "indexed": true,
          "name": "_trusted_contract_address",
          "type": "address"
        },
        {
          "indexed": false,
          "name": "_trusted_status",
          "type": "bool"
        }
      ],
      "name": "TrustedContract",
      "type": "event"
    }
  ],
  "bytecode": "0x606060405234156200001057600080fd5b60405162003aaa38038062003aaa8339810160405280805190602001909190805190602001909190805182019190505060008373ffffffffffffffffffffffffffffffffffffffff16141515156200006757600080fd5b62000086836200022e6401000000000262003353176401000000009004565b15156200009257600080fd5b6101f48263ffffffff1610151515620000aa57600080fd5b82600160006101000a81548173ffffffffffffffffffffffffffffffffffffffff021916908373ffffffffffffffffffffffffffffffffffffffff1602179055506000600160009054906101000a900473ffffffffffffffffffffffffffffffffffffffff1673ffffffffffffffffffffffffffffffffffffffff166318160ddd6000604051602001526040518163ffffffff167c0100000000000000000000000000000000000000000000000000000000028152600401602060405180830381600087803b15156200017c57600080fd5b6102c65a03f115156200018e57600080fd5b50505060405180519050111515620001a557600080fd5b81600060146101000a81548163ffffffff021916908363ffffffff160217905550336000806101000a81548173ffffffffffffffffffffffffffffffffffffffff021916908373ffffffffffffffffffffffffffffffffffffffff1602179055506200022581620002416401000000000262001e3d176401000000009004565b505050620003d9565b600080823b905060008111915050919050565b60008060009054906101000a900473ffffffffffffffffffffffffffffffffffffffff1673ffffffffffffffffffffffffffffffffffffffff163373ffffffffffffffffffffffffffffffffffffffff161415156200029f57600080fd5b600090505b8151811015620003d557620002e58282815181101515620002c157fe5b906020019060200201516200022e6401000000000262003353176401000000009004565b15620003c75760016004600084848151811015156200030057fe5b9060200190602002015173ffffffffffffffffffffffffffffffffffffffff1673ffffffffffffffffffffffffffffffffffffffff16815260200190815260200160002060006101000a81548160ff02191690831515021790555081818151811015156200036a57fe5b9060200190602002015173ffffffffffffffffffffffffffffffffffffffff167fe2ad9d0600e2a93ef46991efd2c22f65f9ebe472487cc7551647bc52d79328996001604051808215151515815260200191505060405180910390a25b8080600101915050620002a4565b5050565b6136c180620003e96000396000f30060606040526004361061013e576000357c0100000000000000000000000000000000000000000000000000000000900463ffffffff168063016a8cf6146101435780630a00840c146101ae5780630eba6b06146101e35780631ac25e991461032a5780631c6f609b146104185780631d8ceb44146104ab5780631f52cc351461059957806322a3eab5146105f3578063323cb59b1461066257806354fd4d50146106cd5780635a8e9d661461075b5780636108b5ff146107a357806377c13323146107cc57806379694f081461084e5780637a7ebd7b146108d8578063803c83831461095a57806380edef8e146109dd5780638c76b4b714610a32578063990030cc14610a8c578063a6b7fa3614610add578063a6d1596314610b3d578063c0ee0b8a14610b99578063fc0c546a14610bef578063fcff5ed614610c44575b600080fd5b341561014e57600080fd5b6101ac600480803573ffffffffffffffffffffffffffffffffffffffff1690602001909190803563ffffffff1690602001909190803577ffffffffffffffffffffffffffffffffffffffffffffffff16906020019091905050610cbf565b005b34156101b957600080fd5b6101c1610e11565b604051808263ffffffff1663ffffffff16815260200191505060405180910390f35b34156101ee57600080fd5b610248600480803573ffffffffffffffffffffffffffffffffffffffff1690602001909190803573ffffffffffffffffffffffffffffffffffffffff1690602001909190803563ffffffff16906020019091905050610e27565b6040518086600019166000191681526020018577ffffffffffffffffffffffffffffffffffffffffffffffff1677ffffffffffffffffffffffffffffffffffffffffffffffff1681526020018463ffffffff1663ffffffff1681526020018377ffffffffffffffffffffffffffffffffffffffffffffffff1677ffffffffffffffffffffffffffffffffffffffffffffffff1681526020018277ffffffffffffffffffffffffffffffffffffffffffffffff1677ffffffffffffffffffffffffffffffffffffffffffffffff1681526020019550505050505060405180910390f35b341561033557600080fd5b6103d6600480803573ffffffffffffffffffffffffffffffffffffffff1690602001909190803563ffffffff1690602001909190803577ffffffffffffffffffffffffffffffffffffffffffffffff1690602001909190803590602001908201803590602001908080601f01602080910402602001604051908101604052809392919081815260200183838082843782019150505050505091905050610f8c565b604051808273ffffffffffffffffffffffffffffffffffffffff1673ffffffffffffffffffffffffffffffffffffffff16815260200191505060405180910390f35b341561042357600080fd5b6104a9600480803573ffffffffffffffffffffffffffffffffffffffff1690602001909190803563ffffffff1690602001909190803577ffffffffffffffffffffffffffffffffffffffffffffffff16906020019091908035906020019082018035906020019190919290803590602001908201803590602001919091929050506111e4565b005b34156104b657600080fd5b610557600480803573ffffffffffffffffffffffffffffffffffffffff1690602001909190803563ffffffff1690602001909190803577ffffffffffffffffffffffffffffffffffffffffffffffff1690602001909190803590602001908201803590602001908080601f016020809104026020016040519081016040528093929190818152602001838380828437820191505050505050919050506112b8565b604051808273ffffffffffffffffffffffffffffffffffffffff1673ffffffffffffffffffffffffffffffffffffffff16815260200191505060405180910390f35b34156105a457600080fd5b6105f1600480803590602001908201803590602001908080602002602001604051908101604052809392919081815260200183836020028082843782019150505050505091905050611510565b005b34156105fe57600080fd5b6106186004808035600019169060200190919050506116cf565b604051808277ffffffffffffffffffffffffffffffffffffffffffffffff1677ffffffffffffffffffffffffffffffffffffffffffffffff16815260200191505060405180910390f35b341561066d57600080fd5b6106cb600480803573ffffffffffffffffffffffffffffffffffffffff1690602001909190803563ffffffff1690602001909190803577ffffffffffffffffffffffffffffffffffffffffffffffff16906020019091905050611706565b005b34156106d857600080fd5b6106e06119be565b6040518080602001828103825283818151815260200191508051906020019080838360005b83811015610720578082015181840152602081019050610705565b50505050905090810190601f16801561074d5780820380516001836020036101000a031916815260200191505b509250505060405180910390f35b341561076657600080fd5b6107a1600480803573ffffffffffffffffffffffffffffffffffffffff1690602001909190803563ffffffff169060200190919050506119f7565b005b34156107ae57600080fd5b6107b6611ade565b6040518082815260200191505060405180910390f35b34156107d757600080fd5b6107f1600480803560001916906020019091905050611aeb565b604051808377ffffffffffffffffffffffffffffffffffffffffffffffff1677ffffffffffffffffffffffffffffffffffffffffffffffff1681526020018263ffffffff1663ffffffff1681526020019250505060405180910390f35b341561085957600080fd5b6108d6600480803573ffffffffffffffffffffffffffffffffffffffff1690602001909190803573ffffffffffffffffffffffffffffffffffffffff1690602001909190803563ffffffff1690602001909190803577ffffffffffffffffffffffffffffffffffffffffffffffff16906020019091905050611b43565b005b34156108e357600080fd5b6108fd600480803560001916906020019091905050611cee565b604051808377ffffffffffffffffffffffffffffffffffffffffffffffff1677ffffffffffffffffffffffffffffffffffffffffffffffff1681526020018263ffffffff1663ffffffff1681526020019250505060405180910390f35b341561096557600080fd5b6109bf600480803573ffffffffffffffffffffffffffffffffffffffff1690602001909190803573ffffffffffffffffffffffffffffffffffffffff1690602001909190803563ffffffff16906020019091905050611d46565b60405180826000191660001916815260200191505060405180910390f35b34156109e857600080fd5b6109f0611e18565b604051808273ffffffffffffffffffffffffffffffffffffffff1673ffffffffffffffffffffffffffffffffffffffff16815260200191505060405180910390f35b3415610a3d57600080fd5b610a8a600480803590602001908201803590602001908080602002602001604051908101604052809392919081815260200183836020028082843782019150505050505091905050611e3d565b005b3415610a9757600080fd5b610ac3600480803573ffffffffffffffffffffffffffffffffffffffff16906020019091905050611fb8565b604051808215151515815260200191505060405180910390f35b3415610ae857600080fd5b610b3b600480803563ffffffff1690602001909190803577ffffffffffffffffffffffffffffffffffffffffffffffff169060200190919080359060200190820180359060200191909192905050611fd8565b005b3415610b4857600080fd5b610b97600480803573ffffffffffffffffffffffffffffffffffffffff1690602001909190803577ffffffffffffffffffffffffffffffffffffffffffffffff1690602001909190505061243a565b005b3415610ba457600080fd5b610bed600480803573ffffffffffffffffffffffffffffffffffffffff16906020019091908035906020019091908035906020019082018035906020019190919290505061258a565b005b3415610bfa57600080fd5b610c026127b5565b604051808273ffffffffffffffffffffffffffffffffffffffff1673ffffffffffffffffffffffffffffffffffffffff16815260200191505060405180910390f35b3415610c4f57600080fd5b610cbd600480803573ffffffffffffffffffffffffffffffffffffffff1690602001909190803573ffffffffffffffffffffffffffffffffffffffff1690602001909190803577ffffffffffffffffffffffffffffffffffffffffffffffff169060200190919050506127db565b005b610ccb33848484612984565b600160009054906101000a900473ffffffffffffffffffffffffffffffffffffffff1673ffffffffffffffffffffffffffffffffffffffff166323b872dd3330846000604051602001526040518463ffffffff167c0100000000000000000000000000000000000000000000000000000000028152600401808473ffffffffffffffffffffffffffffffffffffffff1673ffffffffffffffffffffffffffffffffffffffff1681526020018373ffffffffffffffffffffffffffffffffffffffff1673ffffffffffffffffffffffffffffffffffffffff1681526020018277ffffffffffffffffffffffffffffffffffffffffffffffff1681526020019350505050602060405180830381600087803b1515610de657600080fd5b6102c65a03f11515610df757600080fd5b505050604051805190501515610e0c57600080fd5b505050565b600060149054906101000a900463ffffffff1681565b600080600080600080610e3b898989611d46565b9050600060026000836000191660001916815260200190815260200160002060000160189054906101000a900463ffffffff1663ffffffff16111515610e8057600080fd5b8060026000836000191660001916815260200190815260200160002060000160009054906101000a900477ffffffffffffffffffffffffffffffffffffffffffffffff1660036000846000191660001916815260200190815260200160002060000160189054906101000a900463ffffffff1660036000856000191660001916815260200190815260200160002060000160009054906101000a900477ffffffffffffffffffffffffffffffffffffffffffffffff1660056000866000191660001916815260200190815260200160002060009054906101000a900477ffffffffffffffffffffffffffffffffffffffffffffffff169550955095509550955050939792965093509350565b600080600060405180807f737472696e67206d6573736167655f6964000000000000000000000000000000815250601101807f6164647265737320726563656976657200000000000000000000000000000000815250601001807f75696e74333220626c6f636b5f63726561746564000000000000000000000000815250601401807f75696e743139322062616c616e63650000000000000000000000000000000000815250600f01807f6164647265737320636f6e747261637400000000000000000000000000000000815250601001905060405180910390208787873060405180807f53656e6465722062616c616e63652070726f6f66207369676e61747572650000815250601e018573ffffffffffffffffffffffffffffffffffffffff1673ffffffffffffffffffffffffffffffffffffffff166c010000000000000000000000000281526014018463ffffffff1663ffffffff167c01000000000000000000000000000000000000000000000000000000000281526004018377ffffffffffffffffffffffffffffffffffffffffffffffff1677ffffffffffffffffffffffffffffffffffffffffffffffff16680100000000000000000281526018018273ffffffffffffffffffffffffffffffffffffffff1673ffffffffffffffffffffffffffffffffffffffff166c010000000000000000000000000281526014019450505050506040518091039020604051808360001916600019168152602001826000191660001916815260200192505050604051809103902091506111d58285612c83565b90508092505050949350505050565b60008061122589898989898080601f016020809104026020016040519081016040528093929190818152602001838380828437820191505050505050610f8c565b915061126582898987878080601f0160208091040260200160405190810160405280939291908181526020018383808284378201915050505050506112b8565b90508873ffffffffffffffffffffffffffffffffffffffff168173ffffffffffffffffffffffffffffffffffffffff161415156112a157600080fd5b6112ad82828a8a612d9f565b505050505050505050565b600080600060405180807f737472696e67206d6573736167655f6964000000000000000000000000000000815250601101807f616464726573732073656e646572000000000000000000000000000000000000815250600e01807f75696e74333220626c6f636b5f63726561746564000000000000000000000000815250601401807f75696e743139322062616c616e63650000000000000000000000000000000000815250600f01807f6164647265737320636f6e747261637400000000000000000000000000000000815250601001905060405180910390208787873060405180807f526563656976657220636c6f73696e67207369676e6174757265000000000000815250601a018573ffffffffffffffffffffffffffffffffffffffff1673ffffffffffffffffffffffffffffffffffffffff166c010000000000000000000000000281526014018463ffffffff1663ffffffff167c01000000000000000000000000000000000000000000000000000000000281526004018377ffffffffffffffffffffffffffffffffffffffffffffffff1677ffffffffffffffffffffffffffffffffffffffffffffffff16680100000000000000000281526018018273ffffffffffffffffffffffffffffffffffffffff1673ffffffffffffffffffffffffffffffffffffffff166c010000000000000000000000000281526014019450505050506040518091039020604051808360001916600019168152602001826000191660001916815260200192505050604051809103902091506115018285612c83565b90508092505050949350505050565b60008060009054906101000a900473ffffffffffffffffffffffffffffffffffffffff1673ffffffffffffffffffffffffffffffffffffffff163373ffffffffffffffffffffffffffffffffffffffff1614151561156d57600080fd5b600090505b81518110156116cb5760046000838381518110151561158d57fe5b9060200190602002015173ffffffffffffffffffffffffffffffffffffffff1673ffffffffffffffffffffffffffffffffffffffff16815260200190815260200160002060009054906101000a900460ff16156116be5760006004600084848151811015156115f857fe5b9060200190602002015173ffffffffffffffffffffffffffffffffffffffff1673ffffffffffffffffffffffffffffffffffffffff16815260200190815260200160002060006101000a81548160ff021916908315150217905550818181518110151561166157fe5b9060200190602002015173ffffffffffffffffffffffffffffffffffffffff167fe2ad9d0600e2a93ef46991efd2c22f65f9ebe472487cc7551647bc52d79328996000604051808215151515815260200191505060405180910390a25b8080600101915050611572565b5050565b60056020528060005260406000206000915054906101000a900477ffffffffffffffffffffffffffffffffffffffffffffffff1681565b6000611713338585611d46565b9050600060026000836000191660001916815260200190815260200160002060000160189054906101000a900463ffffffff1663ffffffff1611151561175857600080fd5b600060036000836000191660001916815260200190815260200160002060000160189054906101000a900463ffffffff1663ffffffff1614151561179b57600080fd5b60026000826000191660001916815260200190815260200160002060000160009054906101000a900477ffffffffffffffffffffffffffffffffffffffffffffffff1677ffffffffffffffffffffffffffffffffffffffffffffffff168277ffffffffffffffffffffffffffffffffffffffffffffffff161115151561182057600080fd5b600060149054906101000a900463ffffffff16430160036000836000191660001916815260200190815260200160002060000160186101000a81548163ffffffff021916908363ffffffff1602179055504360036000836000191660001916815260200190815260200160002060000160189054906101000a900463ffffffff1663ffffffff161115156118b357600080fd5b8160036000836000191660001916815260200190815260200160002060000160006101000a81548177ffffffffffffffffffffffffffffffffffffffffffffffff021916908377ffffffffffffffffffffffffffffffffffffffffffffffff1602179055508263ffffffff168473ffffffffffffffffffffffffffffffffffffffff163373ffffffffffffffffffffffffffffffffffffffff167f960e55a871be40c817ffd64e2117c513e42f047ccfdcbc5454e68dfc65e9a9b085604051808277ffffffffffffffffffffffffffffffffffffffffffffffff1677ffffffffffffffffffffffffffffffffffffffffffffffff16815260200191505060405180910390a450505050565b6040805190810160405280600581526020017f302e322e3000000000000000000000000000000000000000000000000000000081525081565b6000611a04338484611d46565b9050600060036000836000191660001916815260200190815260200160002060000160189054906101000a900463ffffffff1663ffffffff16111515611a4957600080fd5b60036000826000191660001916815260200190815260200160002060000160189054906101000a900463ffffffff1663ffffffff1643111515611a8b57600080fd5b611ad933848460036000866000191660001916815260200190815260200160002060000160009054906101000a900477ffffffffffffffffffffffffffffffffffffffffffffffff16612d9f565b505050565b68056bc75e2d6310000081565b60036020528060005260406000206000915090508060000160009054906101000a900477ffffffffffffffffffffffffffffffffffffffffffffffff16908060000160189054906101000a900463ffffffff16905082565b600460003373ffffffffffffffffffffffffffffffffffffffff1673ffffffffffffffffffffffffffffffffffffffff16815260200190815260200160002060009054906101000a900460ff161515611b9b57600080fd5b611ba784848484612984565b600160009054906101000a900473ffffffffffffffffffffffffffffffffffffffff1673ffffffffffffffffffffffffffffffffffffffff166323b872dd3330846000604051602001526040518463ffffffff167c0100000000000000000000000000000000000000000000000000000000028152600401808473ffffffffffffffffffffffffffffffffffffffff1673ffffffffffffffffffffffffffffffffffffffff1681526020018373ffffffffffffffffffffffffffffffffffffffff1673ffffffffffffffffffffffffffffffffffffffff1681526020018277ffffffffffffffffffffffffffffffffffffffffffffffff1681526020019350505050602060405180830381600087803b1515611cc257600080fd5b6102c65a03f11515611cd357600080fd5b505050604051805190501515611ce857600080fd5b50505050565b60026020528060005260406000206000915090508060000160009054906101000a900477ffffffffffffffffffffffffffffffffffffffffffffffff16908060000160189054906101000a900463ffffffff16905082565b6000838383604051808473ffffffffffffffffffffffffffffffffffffffff1673ffffffffffffffffffffffffffffffffffffffff166c010000000000000000000000000281526014018373ffffffffffffffffffffffffffffffffffffffff1673ffffffffffffffffffffffffffffffffffffffff166c010000000000000000000000000281526014018263ffffffff1663ffffffff167c01000000000000000000000000000000000000000000000000000000000281526004019350505050604051809103902090509392505050565b6000809054906101000a900473ffffffffffffffffffffffffffffffffffffffff1681565b60008060009054906101000a900473ffffffffffffffffffffffffffffffffffffffff1673ffffffffffffffffffffffffffffffffffffffff163373ffffffffffffffffffffffffffffffffffffffff16141515611e9a57600080fd5b600090505b8151811015611fb457611ec88282815181101515611eb957fe5b90602001906020020151613353565b15611fa7576001600460008484815181101515611ee157fe5b9060200190602002015173ffffffffffffffffffffffffffffffffffffffff1673ffffffffffffffffffffffffffffffffffffffff16815260200190815260200160002060006101000a81548160ff0219169083151502179055508181815181101515611f4a57fe5b9060200190602002015173ffffffffffffffffffffffffffffffffffffffff167fe2ad9d0600e2a93ef46991efd2c22f65f9ebe472487cc7551647bc52d79328996001604051808215151515815260200191505060405180910390a25b8080600101915050611e9f565b5050565b60046020528060005260406000206000915054906101000a900460ff1681565b6000806000808677ffffffffffffffffffffffffffffffffffffffffffffffff1611151561200557600080fd5b61204333888888888080601f016020809104026020016040519081016040528093929190818152602001838380828437820191505050505050610f8c565b9250612050833389611d46565b9150600060026000846000191660001916815260200190815260200160002060000160189054906101000a900463ffffffff1663ffffffff1611151561209557600080fd5b600060036000846000191660001916815260200190815260200160002060000160189054906101000a900463ffffffff1663ffffffff161415156120d857600080fd5b60026000836000191660001916815260200190815260200160002060000160009054906101000a900477ffffffffffffffffffffffffffffffffffffffffffffffff1677ffffffffffffffffffffffffffffffffffffffffffffffff168677ffffffffffffffffffffffffffffffffffffffffffffffff161115151561215d57600080fd5b8577ffffffffffffffffffffffffffffffffffffffffffffffff1660056000846000191660001916815260200190815260200160002060009054906101000a900477ffffffffffffffffffffffffffffffffffffffffffffffff1677ffffffffffffffffffffffffffffffffffffffffffffffff161015156121de57600080fd5b60056000836000191660001916815260200190815260200160002060009054906101000a900477ffffffffffffffffffffffffffffffffffffffffffffffff16860390508560056000846000191660001916815260200190815260200160002060006101000a81548177ffffffffffffffffffffffffffffffffffffffffffffffff021916908377ffffffffffffffffffffffffffffffffffffffffffffffff160217905550600160009054906101000a900473ffffffffffffffffffffffffffffffffffffffff1673ffffffffffffffffffffffffffffffffffffffff1663a9059cbb33836000604051602001526040518363ffffffff167c0100000000000000000000000000000000000000000000000000000000028152600401808373ffffffffffffffffffffffffffffffffffffffff1673ffffffffffffffffffffffffffffffffffffffff1681526020018277ffffffffffffffffffffffffffffffffffffffffffffffff16815260200192505050602060405180830381600087803b151561236b57600080fd5b6102c65a03f1151561237c57600080fd5b50505060405180519050151561239157600080fd5b8663ffffffff163373ffffffffffffffffffffffffffffffffffffffff168473ffffffffffffffffffffffffffffffffffffffff167fe588a2bb9921c62e0da981f10952a3bb82216bf11a1f731da610fd2542eef27d84604051808277ffffffffffffffffffffffffffffffffffffffffffffffff1677ffffffffffffffffffffffffffffffffffffffffffffffff16815260200191505060405180910390a450505050505050565b612445338383613366565b600160009054906101000a900473ffffffffffffffffffffffffffffffffffffffff1673ffffffffffffffffffffffffffffffffffffffff166323b872dd3330846000604051602001526040518463ffffffff167c0100000000000000000000000000000000000000000000000000000000028152600401808473ffffffffffffffffffffffffffffffffffffffff1673ffffffffffffffffffffffffffffffffffffffff1681526020018373ffffffffffffffffffffffffffffffffffffffff1673ffffffffffffffffffffffffffffffffffffffff1681526020018277ffffffffffffffffffffffffffffffffffffffffffffffff1681526020019350505050602060405180830381600087803b151561256057600080fd5b6102c65a03f1151561257157600080fd5b50505060405180519050151561258657600080fd5b5050565b6000806000806000600160009054906101000a900473ffffffffffffffffffffffffffffffffffffffff1673ffffffffffffffffffffffffffffffffffffffff163373ffffffffffffffffffffffffffffffffffffffff161415156125ee57600080fd5b879450878577ffffffffffffffffffffffffffffffffffffffffffffffff1614151561261957600080fd5b868690509350602884148061262e5750602c84145b151561263957600080fd5b61267687878080601f0160208091040260200160405190810160405280939291908181526020018383808284378201915050505050506020613605565b92508273ffffffffffffffffffffffffffffffffffffffff168973ffffffffffffffffffffffffffffffffffffffff1614806126fb5750600460008a73ffffffffffffffffffffffffffffffffffffffff1673ffffffffffffffffffffffffffffffffffffffff16815260200190815260200160002060009054906101000a900460ff165b151561270657600080fd5b61274387878080601f0160208091040260200160405190810160405280939291908181526020018383808284378201915050505050506034613605565b9150602884141561275e57612759838387613366565b6127aa565b61279b87878080601f0160208091040260200160405190810160405280939291908181526020018383808284378201915050505050506048613628565b90506127a983838388612984565b5b505050505050505050565b600160009054906101000a900473ffffffffffffffffffffffffffffffffffffffff1681565b600460003373ffffffffffffffffffffffffffffffffffffffff1673ffffffffffffffffffffffffffffffffffffffff16815260200190815260200160002060009054906101000a900460ff16151561283357600080fd5b61283e838383613366565b600160009054906101000a900473ffffffffffffffffffffffffffffffffffffffff1673ffffffffffffffffffffffffffffffffffffffff166323b872dd3330846000604051602001526040518463ffffffff167c0100000000000000000000000000000000000000000000000000000000028152600401808473ffffffffffffffffffffffffffffffffffffffff1673ffffffffffffffffffffffffffffffffffffffff1681526020018373ffffffffffffffffffffffffffffffffffffffff1673ffffffffffffffffffffffffffffffffffffffff1681526020018277ffffffffffffffffffffffffffffffffffffffffffffffff1681526020019350505050602060405180830381600087803b151561295957600080fd5b6102c65a03f1151561296a57600080fd5b50505060405180519050151561297f57600080fd5b505050565b6000808277ffffffffffffffffffffffffffffffffffffffffffffffff161115156129ae57600080fd5b60008363ffffffff161115156129c357600080fd5b6129ce858585611d46565b9050600060026000836000191660001916815260200190815260200160002060000160189054906101000a900463ffffffff1663ffffffff16111515612a1357600080fd5b600060036000836000191660001916815260200190815260200160002060000160189054906101000a900463ffffffff1663ffffffff16141515612a5657600080fd5b68056bc75e2d631000008260026000846000191660001916815260200190815260200160002060000160009054906101000a900477ffffffffffffffffffffffffffffffffffffffffffffffff160177ffffffffffffffffffffffffffffffffffffffffffffffff1611151515612acc57600080fd5b8160026000836000191660001916815260200190815260200160002060000160008282829054906101000a900477ffffffffffffffffffffffffffffffffffffffffffffffff160192506101000a81548177ffffffffffffffffffffffffffffffffffffffffffffffff021916908377ffffffffffffffffffffffffffffffffffffffffffffffff1602179055508177ffffffffffffffffffffffffffffffffffffffffffffffff1660026000836000191660001916815260200190815260200160002060000160009054906101000a900477ffffffffffffffffffffffffffffffffffffffffffffffff1677ffffffffffffffffffffffffffffffffffffffffffffffff1610151515612bdc57fe5b8263ffffffff168473ffffffffffffffffffffffffffffffffffffffff168673ffffffffffffffffffffffffffffffffffffffff167f283bcbed58779cdfe40c216a69673863430a43dbf7fe557730c0498890e5512685604051808277ffffffffffffffffffffffffffffffffffffffffffffffff1677ffffffffffffffffffffffffffffffffffffffffffffffff16815260200191505060405180910390a45050505050565b60008060008060418551141515612c9957600080fd5b6020850151925060408501519150606085015160001a9050601b8160ff161015612cc457601b810190505b601b8160ff161480612cd95750601c8160ff16145b1515612ce457600080fd5b600186828585604051600081526020016040526000604051602001526040518085600019166000191681526020018460ff1660ff16815260200183600019166000191681526020018260001916600019168152602001945050505050602060405160208103908084039060008661646e5a03f11515612d6257600080fd5b505060206040510351935060008473ffffffffffffffffffffffffffffffffffffffff1614151515612d9357600080fd5b83935050505092915050565b6000612da961365b565b6000612db6878787611d46565b92506002600084600019166000191681526020019081526020016000206040805190810160405290816000820160009054906101000a900477ffffffffffffffffffffffffffffffffffffffffffffffff1677ffffffffffffffffffffffffffffffffffffffffffffffff1677ffffffffffffffffffffffffffffffffffffffffffffffff1681526020016000820160189054906101000a900463ffffffff1663ffffffff1663ffffffff168152505091506000826020015163ffffffff16111515612e8157600080fd5b816000015177ffffffffffffffffffffffffffffffffffffffffffffffff168477ffffffffffffffffffffffffffffffffffffffffffffffff1611151515612ec857600080fd5b8377ffffffffffffffffffffffffffffffffffffffffffffffff1660056000856000191660001916815260200190815260200160002060009054906101000a900477ffffffffffffffffffffffffffffffffffffffffffffffff1677ffffffffffffffffffffffffffffffffffffffffffffffff1611151515612f4a57600080fd5b600260008460001916600019168152602001908152602001600020600080820160006101000a81549077ffffffffffffffffffffffffffffffffffffffffffffffff02191690556000820160186101000a81549063ffffffff02191690555050600360008460001916600019168152602001908152602001600020600080820160006101000a81549077ffffffffffffffffffffffffffffffffffffffffffffffff02191690556000820160186101000a81549063ffffffff0219169055505060056000846000191660001916815260200190815260200160002060009054906101000a900477ffffffffffffffffffffffffffffffffffffffffffffffff1684039050600160009054906101000a900473ffffffffffffffffffffffffffffffffffffffff1673ffffffffffffffffffffffffffffffffffffffff1663a9059cbb87836000604051602001526040518363ffffffff167c0100000000000000000000000000000000000000000000000000000000028152600401808373ffffffffffffffffffffffffffffffffffffffff1673ffffffffffffffffffffffffffffffffffffffff1681526020018277ffffffffffffffffffffffffffffffffffffffffffffffff16815260200192505050602060405180830381600087803b151561313557600080fd5b6102c65a03f1151561314657600080fd5b50505060405180519050151561315b57600080fd5b600160009054906101000a900473ffffffffffffffffffffffffffffffffffffffff1673ffffffffffffffffffffffffffffffffffffffff1663a9059cbb88868560000151036000604051602001526040518363ffffffff167c0100000000000000000000000000000000000000000000000000000000028152600401808373ffffffffffffffffffffffffffffffffffffffff1673ffffffffffffffffffffffffffffffffffffffff1681526020018277ffffffffffffffffffffffffffffffffffffffffffffffff16815260200192505050602060405180830381600087803b151561324857600080fd5b6102c65a03f1151561325957600080fd5b50505060405180519050151561326e57600080fd5b8463ffffffff168673ffffffffffffffffffffffffffffffffffffffff168873ffffffffffffffffffffffffffffffffffffffff167f5f32714de7650ec742b858687d8db145623b99b0748db73df3ffc4d718867a8d8785604051808377ffffffffffffffffffffffffffffffffffffffffffffffff1677ffffffffffffffffffffffffffffffffffffffffffffffff1681526020018277ffffffffffffffffffffffffffffffffffffffffffffffff1677ffffffffffffffffffffffffffffffffffffffffffffffff1681526020019250505060405180910390a450505050505050565b600080823b905060008111915050919050565b60008068056bc75e2d631000008377ffffffffffffffffffffffffffffffffffffffffffffffff161115151561339b57600080fd5b4391506133a9858584611d46565b9050600060026000836000191660001916815260200190815260200160002060000160009054906101000a900477ffffffffffffffffffffffffffffffffffffffffffffffff1677ffffffffffffffffffffffffffffffffffffffffffffffff1614151561341657600080fd5b600060026000836000191660001916815260200190815260200160002060000160189054906101000a900463ffffffff1663ffffffff1614151561345957600080fd5b600060036000836000191660001916815260200190815260200160002060000160189054906101000a900463ffffffff1663ffffffff1614151561349c57600080fd5b60408051908101604052808477ffffffffffffffffffffffffffffffffffffffffffffffff1681526020018363ffffffff1681525060026000836000191660001916815260200190815260200160002060008201518160000160006101000a81548177ffffffffffffffffffffffffffffffffffffffffffffffff021916908377ffffffffffffffffffffffffffffffffffffffffffffffff16021790555060208201518160000160186101000a81548163ffffffff021916908363ffffffff1602179055509050508373ffffffffffffffffffffffffffffffffffffffff168573ffffffffffffffffffffffffffffffffffffffff167f986876e67d288f7b8bc5229976a1d5710be919feb66d2e1aec1bf3eadebba20785604051808277ffffffffffffffffffffffffffffffffffffffffffffffff1677ffffffffffffffffffffffffffffffffffffffffffffffff16815260200191505060405180910390a35050505050565b600080828401519050806c01000000000000000000000000900491505092915050565b600080828401519050807c0100000000000000000000000000000000000000000000000000000000900491505092915050565b6040805190810160405280600077ffffffffffffffffffffffffffffffffffffffffffffffff168152602001600063ffffffff16815250905600a165627a7a72305820590941ac17b95b46c52e99e9b03522ce54bc6337e3a420d7d8c698294c53fad40029",
  "source": "pragma solidity ^0.4.17;\n\nimport './Token.sol';\nimport './lib/ECVerify.sol';\n\n/// @title Raiden MicroTransfer Channels Contract.\ncontract RaidenMicroTransferChannels {\n\n    /*\n     *  Data structures\n     */\n\n    // The only role of the owner_address is to add or remove trusted contracts\n    address public owner_address;\n\n    // Number of blocks to wait from an uncooperativeClose initiated by the sender\n    // in order to give the receiver a chance to respond with a balance proof\n    // in case the sender cheats. After the challenge period, the sender can settle\n    // and delete the channel.\n    uint32 public challenge_period;\n\n    // Contract semantic version\n    string public constant version = '0.2.0';\n\n    // We temporarily limit total token deposits in a channel to 100 tokens with 18 decimals.\n    // This was calculated just for RDN with its current (as of 30/11/2017) price and should\n    // not be considered to be the same for other tokens.\n    // This is just for the bug bounty release, as a safety measure.\n    uint256 public constant channel_deposit_bugbounty_limit = 10 ** 18 * 100;\n\n    Token public token;\n\n    mapping (bytes32 => Channel) public channels;\n    mapping (bytes32 => ClosingRequest) public closing_requests;\n    mapping (address => bool) public trusted_contracts;\n    mapping (bytes32 => uint192) public withdrawn_balances;\n\n    // 24 bytes (deposit) + 4 bytes (block number)\n    struct Channel {\n        // uint192 is the maximum uint size needed for deposit based on a\n        // 10^8 * 10^18 token totalSupply.\n        uint192 deposit;\n\n        // Block number at which the channel was opened. Used in creating\n        // a unique identifier for the channel between a sender and receiver.\n        // Supports creation of multiple channels between the 2 parties and prevents\n        // replay of messages in later channels.\n        uint32 open_block_number;\n    }\n\n    // 24 bytes (deposit) + 4 bytes (block number)\n    struct ClosingRequest {\n        // Number of tokens owed by the sender when closing the channel.\n        uint192 closing_balance;\n\n        // Block number at which the challenge period ends, in case it has been initiated.\n        uint32 settle_block_number;\n    }\n\n    /*\n     * Modifiers\n     */\n\n    modifier isOwner() {\n        require(msg.sender == owner_address);\n        _;\n    }\n\n    modifier isTrustedContract() {\n        require(trusted_contracts[msg.sender]);\n        _;\n    }\n\n    /*\n     *  Events\n     */\n\n    event ChannelCreated(\n        address indexed _sender_address,\n        address indexed _receiver_address,\n        uint192 _deposit);\n    event ChannelToppedUp (\n        address indexed _sender_address,\n        address indexed _receiver_address,\n        uint32 indexed _open_block_number,\n        uint192 _added_deposit);\n    event ChannelCloseRequested(\n        address indexed _sender_address,\n        address indexed _receiver_address,\n        uint32 indexed _open_block_number,\n        uint192 _balance);\n    event ChannelSettled(\n        address indexed _sender_address,\n        address indexed _receiver_address,\n        uint32 indexed _open_block_number,\n        uint192 _balance,\n        uint192 _receiver_tokens);\n    event ChannelWithdraw(\n        address indexed _sender_address,\n        address indexed _receiver_address,\n        uint32 indexed _open_block_number,\n        uint192 _withdrawn_balance);\n    event TrustedContract(\n        address indexed _trusted_contract_address,\n        bool _trusted_status);\n\n\n    /*\n     *  Constructor\n     */\n\n    /// @notice Constructor for creating the uRaiden microtransfer channels contract.\n    /// @param _token_address The address of the Token used by the uRaiden contract.\n    /// @param _challenge_period A fixed number of blocks representing the challenge period.\n    /// We enforce a minimum of 500 blocks waiting period.\n    /// after a sender requests the closing of the channel without the receiver's signature.\n    /// @param _trusted_contracts Array of contract addresses that can be trusted to\n    /// open and top up channels on behalf of a sender.\n    function RaidenMicroTransferChannels(\n        address _token_address,\n        uint32 _challenge_period,\n        address[] _trusted_contracts)\n        public\n    {\n        require(_token_address != 0x0);\n        require(addressHasCode(_token_address));\n        require(_challenge_period >= 500);\n\n        token = Token(_token_address);\n\n        // // Check if the contract is indeed a token contract\n        require(token.totalSupply() > 0);\n\n        challenge_period = _challenge_period;\n        owner_address = msg.sender;\n        addTrustedContracts(_trusted_contracts);\n    }\n\n    /*\n     *  External functions\n     */\n\n    /// @notice Opens a new channel or tops up an existing one, compatibility with ERC 223.\n    /// @dev Can only be called from the trusted Token contract.\n    /// @param _sender_address The address that sent the tokens to this contract.\n    /// @param _deposit The amount of tokens that the sender escrows.\n    /// @param _data Data needed for either creating a channel or topping it up.\n    /// It always contains the sender and receiver addresses +/- a block number.\n    function tokenFallback(address _sender_address, uint256 _deposit, bytes _data) external {\n        // Make sure we trust the token\n        require(msg.sender == address(token));\n\n        uint192 deposit = uint192(_deposit);\n        require(deposit == _deposit);\n\n        // Create channel - sender address + receiver address = 2 * 20 bytes\n        // Top up channel - sender address + receiver address + block number = 2 * 20 + 4 bytes\n        uint length = _data.length;\n        require(length == 40 || length == 44);\n\n        // Offset of 32 bytes, representing _data.length\n        address channel_sender_address = address(addressFromBytes(_data, 0x20));\n\n        // The channel can be opened by the sender or by a trusted contract\n        require(_sender_address == channel_sender_address || trusted_contracts[_sender_address]);\n\n        // Offset of 32 bytes (data.length) + 20 bytes (sender address)\n        address channel_receiver_address = address(addressFromBytes(_data, 0x34));\n\n        if (length == 40) {\n            createChannelPrivate(channel_sender_address, channel_receiver_address, deposit);\n        } else {\n            // Offset of: 32 bytes (_data.length) + 20 bytes (sender address)\n            // + 20 bytes (receiver address)\n            uint32 open_block_number = uint32(blockNumberFromBytes(_data, 0x48));\n            updateInternalBalanceStructs(\n                channel_sender_address,\n                channel_receiver_address,\n                open_block_number,\n                deposit\n            );\n        }\n    }\n\n    /// @notice Creates a new channel between `msg.sender` and `_receiver_address` and transfers\n    /// the `_deposit` token deposit to this contract. Compatibility with ERC20 tokens.\n    /// @param _receiver_address The address that receives tokens.\n    /// @param _deposit The amount of tokens that the sender escrows.\n    function createChannel(address _receiver_address, uint192 _deposit) external {\n        createChannelPrivate(msg.sender, _receiver_address, _deposit);\n\n        // transferFrom deposit from msg.sender to contract\n        // ! needs prior approval from msg.sender\n        require(token.transferFrom(msg.sender, address(this), _deposit));\n    }\n\n    /// @notice Function that allows a delegate contract to create a new channel between\n    /// `_sender_address` and `_receiver_address` and transfers the token deposit to this contract.\n    /// Can only be called by a trusted contract. Compatibility with ERC20 tokens.\n    /// @param _sender_address The sender's address in behalf of whom the delegate sends tokens.\n    /// @param _receiver_address The address that receives tokens.\n    /// @param _deposit The amount of tokens that the sender escrows.\n    function createChannelDelegate(\n        address _sender_address,\n        address _receiver_address,\n        uint192 _deposit)\n        isTrustedContract\n        external\n    {\n        createChannelPrivate(_sender_address, _receiver_address, _deposit);\n\n        // transferFrom deposit from msg.sender to contract\n        // ! needs prior approval from msg.sender\n        require(token.transferFrom(msg.sender, address(this), _deposit));\n    }\n\n    /// @notice Increase the channel deposit with `_added_deposit`.\n    /// @param _receiver_address The address that receives tokens.\n    /// @param _open_block_number The block number at which a channel between the\n    /// sender and receiver was created.\n    /// @param _added_deposit The added token deposit with which the current deposit is increased.\n    function topUp(\n        address _receiver_address,\n        uint32 _open_block_number,\n        uint192 _added_deposit)\n        external\n    {\n        updateInternalBalanceStructs(\n            msg.sender,\n            _receiver_address,\n            _open_block_number,\n            _added_deposit\n        );\n\n        // transferFrom deposit from msg.sender to contract\n        // ! needs prior approval from msg.sender\n        // Do transfer after any state change\n        require(token.transferFrom(msg.sender, address(this), _added_deposit));\n    }\n\n    /// @notice Function that allows a delegate contract to increase the channel deposit\n    /// with `_added_deposit`. Can only be called by a trusted contract. Compatibility with ERC20 tokens.\n    /// @param _sender_address The sender's address in behalf of whom the delegate sends tokens.\n    /// @param _receiver_address The address that receives tokens.\n    /// @param _open_block_number The block number at which a channel between the\n    /// sender and receiver was created.\n    /// @param _added_deposit The added token deposit with which the current deposit is increased.\n    function topUpDelegate(\n        address _sender_address,\n        address _receiver_address,\n        uint32 _open_block_number,\n        uint192 _added_deposit)\n        isTrustedContract\n        external\n    {\n        updateInternalBalanceStructs(\n            _sender_address,\n            _receiver_address,\n            _open_block_number,\n            _added_deposit\n        );\n\n        // transferFrom deposit from msg.sender to contract\n        // ! needs prior approval from the trusted contract\n        // Do transfer after any state change\n        require(token.transferFrom(msg.sender, address(this), _added_deposit));\n    }\n\n    /// @notice Allows channel receiver to withdraw tokens.\n    /// @param _open_block_number The block number at which a channel between the\n    /// sender and receiver was created.\n    /// @param _balance Partial or total amount of tokens owed by the sender to the receiver.\n    /// Has to be smaller or equal to the channel deposit. Has to match the balance value from\n    /// `_balance_msg_sig` - the balance message signed by the sender.\n    /// Has to be smaller or equal to the channel deposit.\n    /// @param _balance_msg_sig The balance message signed by the sender.\n    function withdraw(\n        uint32 _open_block_number,\n        uint192 _balance,\n        bytes _balance_msg_sig)\n        external\n    {\n        require(_balance > 0);\n\n        // Derive sender address from signed balance proof\n        address sender_address = extractBalanceProofSignature(\n            msg.sender,\n            _open_block_number,\n            _balance,\n            _balance_msg_sig\n        );\n\n        bytes32 key = getKey(sender_address, msg.sender, _open_block_number);\n\n        // Make sure the channel exists\n        require(channels[key].open_block_number > 0);\n\n        // Make sure the channel is not in the challenge period\n        require(closing_requests[key].settle_block_number == 0);\n\n        require(_balance <= channels[key].deposit);\n        require(withdrawn_balances[key] < _balance);\n\n        uint192 remaining_balance = _balance - withdrawn_balances[key];\n        withdrawn_balances[key] = _balance;\n\n        // Send the remaining balance to the receiver\n        require(token.transfer(msg.sender, remaining_balance));\n\n        ChannelWithdraw(sender_address, msg.sender, _open_block_number, remaining_balance);\n    }\n\n    /// @notice Function called by the sender, receiver or a delegate, with all the needed\n    /// signatures to close the channel and settle immediately.\n    /// @param _receiver_address The address that receives tokens.\n    /// @param _open_block_number The block number at which a channel between the\n    /// sender and receiver was created.\n    /// @param _balance The amount of tokens owed by the sender to the receiver.\n    /// @param _balance_msg_sig The balance message signed by the sender.\n    /// @param _closing_sig The receiver's signed balance message, containing the sender's address.\n    function cooperativeClose(\n        address _receiver_address,\n        uint32 _open_block_number,\n        uint192 _balance,\n        bytes _balance_msg_sig,\n        bytes _closing_sig)\n        external\n    {\n        // Derive sender address from signed balance proof\n        address sender = extractBalanceProofSignature(\n            _receiver_address,\n            _open_block_number,\n            _balance,\n            _balance_msg_sig\n        );\n\n        // Derive receiver address from closing signature\n        address receiver = extractClosingSignature(\n            sender,\n            _open_block_number,\n            _balance,\n            _closing_sig\n        );\n        require(receiver == _receiver_address);\n\n        // Both signatures have been verified and the channel can be settled.\n        settleChannel(sender, receiver, _open_block_number, _balance);\n    }\n\n    /// @notice Sender requests the closing of the channel and starts the challenge period.\n    /// This can only happen once.\n    /// @param _receiver_address The address that receives tokens.\n    /// @param _open_block_number The block number at which a channel between\n    /// the sender and receiver was created.\n    /// @param _balance The amount of tokens owed by the sender to the receiver.\n    function uncooperativeClose(\n        address _receiver_address,\n        uint32 _open_block_number,\n        uint192 _balance)\n        external\n    {\n        bytes32 key = getKey(msg.sender, _receiver_address, _open_block_number);\n\n        require(channels[key].open_block_number > 0);\n        require(closing_requests[key].settle_block_number == 0);\n        require(_balance <= channels[key].deposit);\n\n        // Mark channel as closed\n        closing_requests[key].settle_block_number = uint32(block.number) + challenge_period;\n        require(closing_requests[key].settle_block_number > block.number);\n        closing_requests[key].closing_balance = _balance;\n        ChannelCloseRequested(msg.sender, _receiver_address, _open_block_number, _balance);\n    }\n\n\n    /// @notice Function called by the sender after the challenge period has ended, in order to\n    /// settle and delete the channel, in case the receiver has not closed the channel himself.\n    /// @param _receiver_address The address that receives tokens.\n    /// @param _open_block_number The block number at which a channel between\n    /// the sender and receiver was created.\n    function settle(address _receiver_address, uint32 _open_block_number) external {\n        bytes32 key = getKey(msg.sender, _receiver_address, _open_block_number);\n\n        // Make sure an uncooperativeClose has been initiated\n        require(closing_requests[key].settle_block_number > 0);\n\n        // Make sure the challenge_period has ended\n\t    require(block.number > closing_requests[key].settle_block_number);\n\n        settleChannel(msg.sender, _receiver_address, _open_block_number,\n            closing_requests[key].closing_balance\n        );\n    }\n\n    /// @notice Function for retrieving information about a channel.\n    /// @param _sender_address The address that sends tokens.\n    /// @param _receiver_address The address that receives tokens.\n    /// @param _open_block_number The block number at which a channel between the\n    /// sender and receiver was created.\n    /// @return Channel information: unique_identifier, deposit, settle_block_number,\n    /// closing_balance, withdrawn balance).\n    function getChannelInfo(\n        address _sender_address,\n        address _receiver_address,\n        uint32 _open_block_number)\n        external\n        view\n        returns (bytes32, uint192, uint32, uint192, uint192)\n    {\n        bytes32 key = getKey(_sender_address, _receiver_address, _open_block_number);\n        require(channels[key].open_block_number > 0);\n\n        return (\n            key,\n            channels[key].deposit,\n            closing_requests[key].settle_block_number,\n            closing_requests[key].closing_balance,\n            withdrawn_balances[key]\n        );\n    }\n\n    /*\n     *  Public functions\n     */\n\n    /// @notice Function for adding trusted contracts. Can only be called by owner_address.\n    /// @param _trusted_contracts Array of contract addresses that can be trusted to\n    /// open and top up channels on behalf of a sender.\n    function addTrustedContracts(address[] _trusted_contracts) isOwner public {\n        for (uint256 i = 0; i < _trusted_contracts.length; i++) {\n            if (addressHasCode(_trusted_contracts[i])) {\n                trusted_contracts[_trusted_contracts[i]] = true;\n                TrustedContract(_trusted_contracts[i], true);\n            }\n        }\n    }\n\n    /// @notice Function for removing trusted contracts. Can only be called by owner_address.\n    /// @param _trusted_contracts Array of contract addresses to be removed from\n    /// the trusted_contracts mapping.\n    function removeTrustedContracts(address[] _trusted_contracts) isOwner public {\n        for (uint256 i = 0; i < _trusted_contracts.length; i++) {\n            if (trusted_contracts[_trusted_contracts[i]]) {\n                trusted_contracts[_trusted_contracts[i]] = false;\n                TrustedContract(_trusted_contracts[i], false);\n            }\n        }\n    }\n\n    /// @notice Returns the sender address extracted from the balance proof.\n    /// dev Works with eth_signTypedData https://github.com/ethereum/EIPs/pull/712.\n    /// @param _receiver_address The address that receives tokens.\n    /// @param _open_block_number The block number at which a channel between the\n    /// sender and receiver was created.\n    /// @param _balance The amount of tokens owed by the sender to the receiver.\n    /// @param _balance_msg_sig The balance message signed by the sender.\n    /// @return Address of the balance proof signer.\n    function extractBalanceProofSignature(\n        address _receiver_address,\n        uint32 _open_block_number,\n        uint192 _balance,\n        bytes _balance_msg_sig)\n        public\n        view\n        returns (address)\n    {\n        // The variable names from below will be shown to the sender when signing\n        // the balance proof, so they have to be kept in sync with the Dapp client.\n        // The hashed strings should be kept in sync with this function's parameters\n        // (variable names and types).\n        // ! Note that EIP712 might change how hashing is done, triggering a\n        // new contract deployment with updated code.\n        bytes32 message_hash = keccak256(\n            keccak256(\n                'string message_id',\n                'address receiver',\n                'uint32 block_created',\n                'uint192 balance',\n                'address contract'\n            ),\n            keccak256(\n                'Sender balance proof signature',\n                _receiver_address,\n                _open_block_number,\n                _balance,\n                address(this)\n            )\n        );\n\n        // Derive address from signature\n        address signer = ECVerify.ecverify(message_hash, _balance_msg_sig);\n        return signer;\n    }\n\n    /// @dev Returns the receiver address extracted from the closing signature.\n    /// Works with eth_signTypedData https://github.com/ethereum/EIPs/pull/712.\n    /// @param _sender_address The address that sends tokens.\n    /// @param _open_block_number The block number at which a channel between the\n    /// sender and receiver was created.\n    /// @param _balance The amount of tokens owed by the sender to the receiver.\n    /// @param _closing_sig The receiver's signed balance message, containing the sender's address.\n    /// @return Address of the closing signature signer.\n    function extractClosingSignature(\n        address _sender_address,\n        uint32 _open_block_number,\n        uint192 _balance,\n        bytes _closing_sig)\n        public\n        view\n        returns (address)\n    {\n        // The variable names from below will be shown to the sender when signing\n        // the balance proof, so they have to be kept in sync with the Dapp client.\n        // The hashed strings should be kept in sync with this function's parameters\n        // (variable names and types).\n        // ! Note that EIP712 might change how hashing is done, triggering a\n        // new contract deployment with updated code.\n        bytes32 message_hash = keccak256(\n            keccak256(\n                'string message_id',\n                'address sender',\n                'uint32 block_created',\n                'uint192 balance',\n                'address contract'\n            ),\n            keccak256(\n                'Receiver closing signature',\n                _sender_address,\n                _open_block_number,\n                _balance,\n                address(this)\n            )\n        );\n\n        // Derive address from signature\n        address signer = ECVerify.ecverify(message_hash, _closing_sig);\n        return signer;\n    }\n\n    /// @notice Returns the unique channel identifier used in the contract.\n    /// @param _sender_address The address that sends tokens.\n    /// @param _receiver_address The address that receives tokens.\n    /// @param _open_block_number The block number at which a channel between the\n    /// sender and receiver was created.\n    /// @return Unique channel identifier.\n    function getKey(\n        address _sender_address,\n        address _receiver_address,\n        uint32 _open_block_number)\n        public\n        pure\n        returns (bytes32 data)\n    {\n        return keccak256(_sender_address, _receiver_address, _open_block_number);\n    }\n\n    /*\n     *  Private functions\n     */\n\n    /// @dev Creates a new channel between a sender and a receiver.\n    /// @param _sender_address The address that sends tokens.\n    /// @param _receiver_address The address that receives tokens.\n    /// @param _deposit The amount of tokens that the sender escrows.\n    function createChannelPrivate(\n        address _sender_address,\n        address _receiver_address,\n        uint192 _deposit)\n        private\n    {\n        require(_deposit <= channel_deposit_bugbounty_limit);\n\n        uint32 open_block_number = uint32(block.number);\n\n        // Create unique identifier from sender, receiver and current block number\n        bytes32 key = getKey(_sender_address, _receiver_address, open_block_number);\n\n        require(channels[key].deposit == 0);\n        require(channels[key].open_block_number == 0);\n        require(closing_requests[key].settle_block_number == 0);\n\n        // Store channel information\n        channels[key] = Channel({deposit: _deposit, open_block_number: open_block_number});\n        ChannelCreated(_sender_address, _receiver_address, _deposit);\n    }\n\n    /// @dev Updates internal balance Structures when the sender adds tokens to the channel.\n    /// @param _sender_address The address that sends tokens.\n    /// @param _receiver_address The address that receives tokens.\n    /// @param _open_block_number The block number at which a channel between the\n    /// sender and receiver was created.\n    /// @param _added_deposit The added token deposit with which the current deposit is increased.\n    function updateInternalBalanceStructs(\n        address _sender_address,\n        address _receiver_address,\n        uint32 _open_block_number,\n        uint192 _added_deposit)\n        private\n    {\n        require(_added_deposit > 0);\n        require(_open_block_number > 0);\n\n        bytes32 key = getKey(_sender_address, _receiver_address, _open_block_number);\n\n        require(channels[key].open_block_number > 0);\n        require(closing_requests[key].settle_block_number == 0);\n        require(channels[key].deposit + _added_deposit <= channel_deposit_bugbounty_limit);\n\n        channels[key].deposit += _added_deposit;\n        assert(channels[key].deposit >= _added_deposit);\n        ChannelToppedUp(_sender_address, _receiver_address, _open_block_number, _added_deposit);\n    }\n\n    /// @dev Deletes the channel and settles by transfering the balance to the receiver\n    /// and the rest of the deposit back to the sender.\n    /// @param _sender_address The address that sends tokens.\n    /// @param _receiver_address The address that receives tokens.\n    /// @param _open_block_number The block number at which a channel between the\n    /// sender and receiver was created.\n    /// @param _balance The amount of tokens owed by the sender to the receiver.\n    function settleChannel(\n        address _sender_address,\n        address _receiver_address,\n        uint32 _open_block_number,\n        uint192 _balance)\n        private\n    {\n        bytes32 key = getKey(_sender_address, _receiver_address, _open_block_number);\n        Channel memory channel = channels[key];\n\n        require(channel.open_block_number > 0);\n        require(_balance <= channel.deposit);\n        require(withdrawn_balances[key] <= _balance);\n\n        // Remove closed channel structures\n        // channel.open_block_number will become 0\n        // Change state before transfer call\n        delete channels[key];\n        delete closing_requests[key];\n\n        // Send the unwithdrawn _balance to the receiver\n        uint192 receiver_remaining_tokens = _balance - withdrawn_balances[key];\n        require(token.transfer(_receiver_address, receiver_remaining_tokens));\n\n        // Send deposit - balance back to sender\n        require(token.transfer(_sender_address, channel.deposit - _balance));\n\n        ChannelSettled(\n            _sender_address,\n            _receiver_address,\n            _open_block_number,\n            _balance,\n            receiver_remaining_tokens\n        );\n    }\n\n    /*\n     *  Internal functions\n     */\n\n    /// @dev Internal function for getting an address from tokenFallback data bytes.\n    /// @param data Bytes received.\n    /// @param offset Number of bytes to offset.\n    /// @return Extracted address.\n    function addressFromBytes (bytes data, uint256 offset) internal pure returns (address) {\n        bytes20 extracted_address;\n        assembly {\n            extracted_address := mload(add(data, offset))\n        }\n        return address(extracted_address);\n    }\n\n    /// @dev Internal function for getting the block number from tokenFallback data bytes.\n    /// @param data Bytes received.\n    /// @param offset Number of bytes to offset.\n    /// @return Block number.\n    function blockNumberFromBytes(bytes data, uint256 offset) internal pure returns (uint32) {\n        bytes4 block_number;\n        assembly {\n            block_number := mload(add(data, offset))\n        }\n        return uint32(block_number);\n    }\n\n    /// @dev Check if a contract exists.\n    /// @param _contract The address of the contract to check for.\n    /// @return True if a contract exists, false otherwise.\n    function addressHasCode(address _contract) internal view returns (bool) {\n        uint size;\n        assembly {\n            size := extcodesize(_contract)\n        }\n\n        return size > 0;\n    }\n}\n",
  "sourcePath": "/Users/rossmcewan/Source/Dala/dala-wallet/contracts/RaidenMicroTransferChannels.sol",
  "compiler": {
    "name": "solc",
    "version": "0.4.18+commit.9cf6e910.Emscripten.clang"
  },
  "schemaVersion": "1.0.1",
  "updatedAt": "2018-04-11T06:54:33.507Z"
}